:100000000C945D000C9485000C9485000C94850084
:100010000C9485000C9485000C9485000C9485004C
:100020000C9485000C9485000C9485000C9485003C
:100030000C9485000C9485000C9485000C9485002C
:100040000C94DC080C9485000C94AA080C94840889
:100050000C9485000C9485000C9485000C9485000C
:100060000C9485000C94850000000008000201003B
:100070000003040700000000000000000000000072
:10008000250028002B0000000000240027002A0083
:10009000040404040404040402020202020203032E
:1000A0000303030301020408102040800102040836
:1000B0001020010204081020260911241FBECFEFD2
:1000C000D8E0DEBFCDBF11E0A0E0B1E0EAE7FBE1A0
:1000D00002C005900D92A835B107D9F722E0A8E536
:1000E000B1E001C01D92AD37B207E1F710E0CDE5F8
:1000F000D0E004C02197FE010E94B50DCC35D10798
:10010000C9F70E94BE090C94BB0D0C94000090E04E
:10011000FC01EC55FF4F249180579F4FFC018491C7
:10012000882399F090E0880F991FFC01EA57FF4F50
:10013000A591B491FC01E458FF4F859194918FB73C
:10014000F894EC91E22BEC938FBF08952A989EBD12
:1001500000000DB407FEFDCF9EB58EBD00000DB4AE
:1001600007FEFDCF8EB52A9A0895CF93DF93EB015A
:1001700040916F015091700121E030E0042E02C0E7
:10018000220F331F0A94E2F7215031098217930797
:1001900008F49C018CE090E0841B950B02C0220FB8
:1001A000331F8A95E2F78091660190916701882755
:1001B000907F822B932B90936701809366010E941E
:1001C000A60040916F015091700181E090E0042EF3
:1001D00002C0880F991F0A94E2F70197C817D90740
:1001E00008F4CE012CE030E0241B350B02C0880F50
:1001F000991F2A95E2F72091680130916901222721
:10020000307F822B932B90936901809368010E9429
:10021000A60080917101882349F080916D01909131
:100220006E0197FD03C05F9800005F9ADF91CF9148
:100230000895CF92DF92EF92FF92C0904402D09047
:100240004502E0904602F09047026C157D058E0550
:100250009F0514F1C0904C02D0904D02E0904E02E8
:10026000F0904F02C616D706E806F906C4F482E0FD
:1002700090E0C0904802D0904902E0904A02F0908D
:100280004B022C153D054E055F0564F48460FF901C
:10029000EF90DF90CF90089581E090E0EACF90E07A
:1002A00080E0E7CFC0905002D0905102E09052021F
:1002B000F0905302C216D306E406F50644F78860B0
:1002C000E6CFAF92BF92CF92DF92EF92FF920F9361
:1002D0001F93CF93DF936C017B018B01040F151FDC
:1002E000EB015E01AE18BF08C017D10759F0699144
:1002F000D601ED91FC910190F081E02DC6010995A8
:10030000892B79F7C501DF91CF911F910F91FF9054
:10031000EF90DF90CF90BF90AF900895FC01538D88
:10032000448D252F30E0842F90E0821B930B5417CF
:1003300010F0CF96089501970895FC01918D828D5C
:10034000981761F0A28DAE0FBF2FB11D5D968C91F5
:10035000928D9F5F9F73928F90E008958FEF9FEF34
:100360000895FC01918D828D981731F0828DE80FF0
:10037000F11D858D90E008958FEF9FEF0895FC01AA
:10038000918D228D892F90E0805C9F4F821B910977
:100390008F739927089582E791E00E94BF0121E0C1
:1003A000892B09F420E0822F089580E090E0892BCA
:1003B00029F00E94CB0181110C9400000895FC01EA
:1003C000A48DA80FB92FB11DA35ABF4F2C91848DB6
:1003D00090E001968F739927848FA689B7892C9313
:1003E000A089B1898C91837080648C93938D848D66
:1003F000981306C00288F389E02D80818F7D808369
:100400000895EF92FF920F931F93CF93DF93EC0128
:1004100081E0888F9B8D8C8D98131AC0E889F989AB
:10042000808185FF15C09FB7F894EE89FF896083AE
:10043000E889F98980818370806480839FBF81E02F
:1004400090E0DF91CF911F910F91FF90EF90089571
:10045000F62E0B8D10E00F5F1F4F0F731127E02E4C
:100460008C8D8E110CC00FB607FCFACFE889F98984
:10047000808185FFF5CFCE010E94DF01F1CFEB8DAA
:10048000EC0FFD2FF11DE35AFF4FF0829FB7F89458
:100490000B8FEA89FB8980818062CFCFCF93DF9376
:1004A000EC01888D8823B9F0AA89BB89E889F9898C
:1004B0008C9185FD03C0808186FD0DC00FB607FCC1
:1004C000F7CF8C9185FFF2CF808185FFEDCFCE01F4
:1004D0000E94DF01E9CFDF91CF91089590E0FC0108
:1004E000E859FF4F2491FC01EC55FF4F3491FC017A
:1004F000E057FF4FE491EE23C9F0222339F0233077
:1005000001F1A8F4213019F1223029F1F0E0EE0FC9
:10051000FF1FE458FF4FA591B4918FB7F894EC9169
:10052000611126C030953E233C938FBF089527303C
:10053000A9F02830C9F0243049F7809180008F7DE0
:1005400003C0809180008F7780938000DFCF84B5D7
:100550008F7784BDDBCF84B58F7DFBCF8091B000DA
:100560008F778093B000D2CF8091B0008F7DF9CF8C
:100570003E2BDACF80911D0290911E02892B69F0EB
:100580008BEC97E00197F1F710921E0210921D027A
:1005900060E080910F020C946E0208952F923F92BA
:1005A0004F925F926F927F928F929F92AF92BF9283
:1005B000CF92DF92EF92FF920F931F93CF93DF932F
:1005C000CDB7DEB7A0970FB6F894DEBF0FBECDBF94
:1005D00069877A878B879C872D873E874F87588BC3
:1005E0008091150290911602A0911702B091180205
:1005F00049845A846B847C84481A590A6A0A7B0AA3
:100600008091190290911A02A0911B02B0911C02D4
:1006100049015A01881A990AAA0ABB0A73016201A0
:1006200077FE07C0CC24DD247601C418D508E6087F
:10063000F70820911102309112024091130250915B
:10064000140229833A834B835C83A7019601698155
:100650007A818B819C810E94A50D705E8F4F9F4F88
:100660009B01AC010EE055954795379527950A9566
:10067000D1F72D833E834F835887C501B401B7FE60
:1006800007C066277727CB01681979098A099B0972
:1006900020912B0230912C0240912D0250912E027C
:1006A000298B3A8B4B8B5C8BC60ED71EE81EF91E2E
:1006B000C20ED31EE41EF51EC0922B02D0922C0255
:1006C000E0922D02F0922E0229813A814B815C81C9
:1006D0000E94A50D6B017C0130E2D30EE11CF11CE0
:1006E0001EE0F594E794D794C7941A95D1F74D81FD
:1006F0005E816F817885C416D506E606F70614F488
:100700006A017B01C301B201EEE0660F771F881F0B
:10071000991FEA95D1F7FEE0880C991CAA1CBB1C16
:10072000FA95D1F7A70196010E942D0C2D8B3E8BD7
:100730004F8B588FC501B401A70196010E942D0C63
:10074000298F3A8F4B8F5C8F60E070E280E090E001
:1007500069837A838B839C83412CA0E25A2E612C7F
:10076000712C1D821E821F821886D701C601019737
:10077000A109B1098D8F9E8FAF8FB8A322242A942F
:10078000BFE03B2E2D8D3E8D4F8D58A16D817E811A
:100790008F81988562177307840795070CF0C9C08D
:1007A00000912F02109130022091310230913202DB
:1007B0000F3F7FEF17072707370709F46CC08091B9
:1007C0003302811168C0530142014EE0B594A794F1
:1007D000979487944A95D1F7C980DA80EB80FC80A2
:1007E0005EE0F594E794D794C7945A95D1F7D50174
:1007F000C401B7FE07C088279927DC018819990929
:10080000AA09BB0949895A896B897C89840F951F7C
:10081000A61FB71FB701A601F7FE07C0442755273B
:10082000BA014C195D096E097F09840F951FA61F37
:10083000B71F081719072A073B076CF50E94BA0271
:1008400051E0509333028091150290911602A091CD
:100850001702B0911802880D991DAA1DBB1D809327
:10086000340290933502A0933602B0933702809100
:10087000190290911A02A0911B02B0911C028C0DDA
:100880009D1DAE1DBF1D8093380290933902A09329
:100890003A02B0933B0269817A818B819C81298DD8
:1008A0003A8D4B8D5C8D620F731F841F951F69837A
:1008B0007A838B839C834D895E896F89788D440E02
:1008C000551E661E771E89819A81AB81BC812EE000
:1008D000B595A795979587952A95D1F720911902F7
:1008E00030911A02820F931FB101681B790BD3015B
:1008F000C2013EE0B595A795979587953A95D1F7B2
:100900002091150230911602820F931FD101A81B6E
:10091000B90BCD010E94B5002D813E814F815885D4
:100920002F5F3F4F4F4F5F4F2D833E834F8358873D
:1009300029CF80913302811138C080912F0290918C
:100940003002A0913102B09132028F3F3FEF930706
:10095000A307B30751F140912B0250912C026091F3
:100960002D0270912E0284179507A607B707ECF4A5
:100970000E94BA0281E08093330249855A856B85D3
:100980007C85409334025093350260933602709315
:1009900037026D857E858F859889609338027093C4
:1009A000390280933A0290933B0289859A85AB8500
:1009B000BC858093150290931602A0931702B09302
:1009C00018022D853E854F85588920931902309352
:1009D0001A0240931B0250931C028FEF9FE0BC0150
:1009E000621B730B49855A85841B950B0E94B500C9
:1009F0008FE090E00197F1F7A0960FB6F894DEBF74
:100A00000FBECDBFDF91CF911F910F91FF90EF905F
:100A1000DF90CF90BF90AF909F908F907F906F901E
:100A20005F904F903F902F9008952F923F924F925A
:100A30005F926F927F928F929F92AF92BF92CF926E
:100A4000DF92EF92FF920F931F93CF93DF93CDB777
:100A5000DEB7E2970FB6F894DEBF0FBECDBF2B0115
:100A60003C0149015A0180915402882309F4B0C025
:100A70006091590270915A0280915B0290915C02E0
:100A8000A30192010E94A50D6B017C01609165029A
:100A9000709166028091670290916802A5019401AD
:100AA0000E94A50DC60ED71EE81EF91EA7019601CD
:100AB0006EE055954795379527956A95D1F72D8323
:100AC0003E834F8358878091790290917A02A0915A
:100AD0007B02B0917C0289839A83AB83BC83609153
:100AE0005D0270915E0280915F0290916002A301AD
:100AF00092010E94A50D6B017C01609169027091C9
:100B00006A0280916B0290916C02A50194010E948F
:100B1000A50DC60ED71EE81EF91E7EE0F594E794DB
:100B2000D794C7947A95D1F70D2C000CEE08FF08E6
:100B300029813A814B815C81C20ED31EE41EF51ED1
:100B4000609155027091560280915702909158021F
:100B5000A30192010E94A50D2B013C01609161024D
:100B6000709162028091630290916402A5019401E8
:100B70000E94A50D460E571E681E791EEEE0759464
:100B8000679457944794EA95D1F7D20129813A8125
:100B90004B815C810E94570CA70196010E942D0C8D
:100BA00029013A0188E0580E611C711CAD81BE819B
:100BB00029813A814B815C810E94570CA7019601E3
:100BC0000E942D0C49015A0198E0990EA11CB11CFC
:100BD000C0901F02D0902002E0902102F0902202EB
:100BE000A7019601C301B2010E94A50D705E8F4F4F
:100BF0009F4F2EE095958795779567952A95D1F724
:100C000040902302509024026090250270902602AA
:100C10009B01AC01240D351D461D571D29A33AA388
:100C20004BA35CA3A7019601C501B4010E94A50DC9
:100C3000705E8F4F9F4F3EE09595879577956795AE
:100C40003A95D1F7C0902702D0902802E09029026F
:100C5000F0902A029B01AC012C0D3D1D4E1D5F1D25
:100C60002DA33EA34FA358A780913C0290913D0233
:100C7000A0913E02B0913F0289A79AA7ABA7BCA75B
:100C80002091400230914102409142025091430232
:100C90002DA73EA74FA758ABBC01CD010E9419015B
:100CA0009A8789872DA13EA14FA158A569A17AA154
:100CB0008BA19CA10E9419019C878B878091440283
:100CC00090914502A0914602B09147028D8F9E8F70
:100CD000AF8FB8A320914C0230914D0240914E024B
:100CE00050914F02298F3A8F4B8F5C8F8091480231
:100CF00090914902A0914A02B0914B028D8B9E8B3C
:100D0000AF8BB88F20915002309151024091520226
:100D100050915302298B3A8B4B8B5C8B8DA49EA4F4
:100D2000AFA4B8A8C9A4DAA4EBA4FCA48DA19EA189
:100D3000AFA1B8A589839A83AB83BC8329A13AA1CB
:100D40004BA15CA12D833E834F83588789859A856B
:100D50004B855C85842B952B892B09F467C189858C
:100D60009A8584239523892B09F082C189859A85E8
:100D7000009709F478C09E878D87BD85B3FF78C042
:100D80006D817E818F8198856C197D098E099F09FF
:100D90000E94340B2B013C0169897A898B899C89DB
:100DA000681979098A099B090E94340B9B01AC01DF
:100DB000C301B2010E946F0B2B013C0169817A8152
:100DC0008B819C81681979098A099B090E94340BDF
:100DD0009B01AC01C301B2010E94FD0C2B013C013F
:100DE000C701B6010E94340B9B01AC01C301B201E3
:100DF0000E94910C0E946F0D362E172F8AAB99AB73
:100E000029892F873A89388B2B880C892F85388937
:100E1000422D502F632D712F8AA999A90E94190183
:100E2000A985BA852D853E85A217B30769F03F8550
:100E3000398348894A832B820C833D821E835AA9B9
:100E40005F83A9A9A8870CC08F849888A22CB02E94
:100E5000C32CD12EEAA8F9A889879A878B859C850F
:100E60008B879C8773CFAB85BC85BE87AD8785CFCD
:100E70004D8542FF47C06D817E818F8198856C19B9
:100E80007D098E099F090E94340B2B013C016D895D
:100E90007E898F89988D681979098A099B090E9432
:100EA000340B9B01AC01C301B2010E946F0B2B01FB
:100EB0003C0169817A818B819C81681979098A0951
:100EC0009B090E94340B9B01AC01C301B2010E943B
:100ED000FD0C2B013C01C701B6010E94340B9B01A4
:100EE000AC01C301B2010E94910C0E946F0D362E1D
:100EF000172F8AAB99AB5D895F878E89888B2F8886
:100F0000088D84CF9D8591FF47C069817A818B814F
:100F10009C81681979098A099B090E94340B2B016D
:100F20003C01698D7A8D8B8D9C8D6C197D098E09A4
:100F30009F090E94340B9B01AC01C301B2010E94C6
:100F40006F0B2B013C016D817E818F8198856C191F
:100F50007D098E099F090E94340B9B01AC01C301DE
:100F6000B2010E94FD0C2B013C01C501B4010E949D
:100F7000340B9B01AC01C301B2010E94910C0E9491
:100F80006F0D6F87788B282E092F398C1A8DAB8DBA
:100F9000AAABBC8DB9AB3ACF2D8520FF37CF698185
:100FA0007A818B819C81681979098A099B090E9441
:100FB000340B2B013C016D8D7E8D8F8D98A16C19AA
:100FC0007D098E099F090E94340B9B01AC01C3016E
:100FD000B2010E946F0B2B013C016D817E818F81DC
:100FE00098856C197D098E099F090E94340B9B011D
:100FF000AC01C301B2010E94FD0C2B013C01C501F3
:10100000B4010E94340B9B01AC01C301B2010E94E8
:10101000910C0E946F0D6F87788B282E092F3D8CC5
:101020001E8D3F8D3AAB48A149ABF0CE89A59AA55C
:10103000ABA5BCA58C159D05AE05BF0549F42DA536
:101040003EA54FA558A9281539054A055B0531F07D
:10105000A5019401C701B6010E94CE0229813A81FF
:101060004B815C816D817E818F8198850E94CE024B
:1010700089A19AA1ABA1BCA180933C0290933D02AF
:10108000A0933E02B0933F022DA13EA14FA158A5CF
:101090002093400230934102409342025093430216
:1010A000E2960FB6F894DEBF0FBECDBFDF91CF91B1
:1010B0001F910F91FF90EF90DF90CF90BF90AF9076
:1010C0009F908F907F906F905F904F903F902F9068
:1010D0000895FC0101900020E9F73197AF01481B0A
:1010E000590BBC0182E791E00C946101CF93DF932F
:1010F0000E946908EC0186E391E00E9469088C0F68
:101100009D1FDF91CF9108951F920F920FB60F92FE
:1011100011242F933F934F935F936F937F938F93FC
:101120009F93AF93BF93EF93FF9382E791E00E9469
:10113000DF01FF91EF91BF91AF919F918F917F91CF
:101140006F915F914F913F912F910F900FBE0F9034
:101150001F9018951F920F920FB60F9211242F9384
:101160008F939F93EF93FF93E0918201F09183011E
:101170008081E0918801F091890182FD1BC09081FE
:1011800080918B018F5F8F7320918C01821741F0CA
:10119000E0918B01F0E0EE58FE4F958F80938B012C
:1011A000FF91EF919F918F912F910F900FBE0F9014
:1011B0001F9018958081F4CF1F920F920FB60F9257
:1011C00011242F933F938F939F93AF93BF9380915D
:1011D0005D0190915E01A0915F01B091600130913D
:1011E0005C0123E0230F2D3758F50196A11DB11D99
:1011F00020935C0180935D0190935E01A0935F0159
:10120000B09360018091580190915901A0915A01C9
:10121000B0915B010196A11DB11D8093580190937F
:101220005901A0935A01B0935B01BF91AF919F9177
:101230008F913F912F910F900FBE0F901F90189597
:1012400026E8230F0296A11DB11DD2CFE2E7F1E0FF
:101250001382128248EE53E060E070E044835583CD
:101260006683778388E291E09183808385EC90E0C8
:101270009587848784EC90E09787868780EC90E060
:10128000918B808B81EC90E0938B828B82EC90E051
:10129000958B848B86EC90E0978B868B118E128ECB
:1012A000138E148E84E2E0E0F1E0A5E5B2E0019057
:1012B0000D928A95E1F7EFE0F2E085E090E091830E
:1012C000808380E091E0A0E0B0E082839383A483F8
:1012D000B5831682178210861186128613861486AD
:1012E000158615A616A617A610AA11AA12AA13AA41
:1012F00014AA1786168681E090E0A0E0B0E0808B0B
:10130000918BA28BB38B148A158A168A178A108E3A
:10131000118E128E138E148E158E168E178E8FEFE1
:101320009FEFDC0180A391A3A2A3B3A314A215AAEB
:1013300016AA17AA10AE11AE12AE13AE14AE8FEFEE
:101340009FE0A0E0B0E080934C0290934D02A09308
:101350004E02B0934F028093500290935102A0939B
:101360005202B09353021092540240937902509368
:101370007A0260937B0270937C020895789484B51E
:10138000826084BD84B5816084BD85B5826085BD81
:1013900085B5816085BD80916E00816080936E000F
:1013A0001092810080918100826080938100809101
:1013B00081008160809381008091800081608093B2
:1013C00080008091B10084608093B1008091B00072
:1013D00081608093B00080917A00846080937A006D
:1013E00080917A00826080937A0080917A00816097
:1013F00080937A0080917A00806880937A001092BE
:10140000C1008CE090E09093700180936F0181E0C7
:1014100080936A0120E038E03093630120936201F9
:1014200030936501209364012AE030E030936C0131
:1014300020936B0127E030E030936E0120936D0123
:101440008093710180E090E790936701809366013B
:1014500080E090EF90936901809368018AE00E9498
:10146000870080916D010E94870061E080916B018F
:101470000E946E0261E080916D010E946E02CFB702
:10148000F89480916101811124C0EAE9F0E084912F
:10149000EEEAF0E09491E82FF0E0EE0FFF1FEA573C
:1014A000FF4FA591B491EC91E92321F461E08AE02A
:1014B0000E946E028AE00E9487008CB580618CBD1C
:1014C0008CB580648CBD8DE00E9487008BE00E940B
:1014D0008700809161018F5F80936101CFBF8CB5E0
:1014E0008F7D8CBD8CB5837F8CBD8CB58C7F8CBD86
:1014F0008DB581608DBD80910F020E948700E091C3
:101500008201F091830182E08083E0917E01F0917D
:101510007F011082E0918001F091810180E1808360
:1015200010928A01E0918601F091870186E0808324
:10153000E0918401F0918501808180618083E09158
:101540008401F0918501808188608083E09184012D
:10155000F0918501808180688083E0918401F09121
:10156000850180818F7D808389E391E00E947608E8
:10157000812C90E4992EA12CB12C20EDE22E27E0B5
:10158000F22E30E0C32E30E0D32E80921F029092D4
:101590002002A0922102B092220290E080E0EC01B1
:1015A00010E000E08EE6782E8EE8870D823078F02D
:1015B00082E791E00E949D01782E682F82E791E0FA
:1015C0000E94010286E391E00E946908EDCF83E763
:1015D000781235C084E491E00E9476080E9D900157
:1015E0000F9D300D1E9D300D1124205E3C4F032EAB
:1015F000000C440B550BCE9DB001CF9D700DDE9DB0
:10160000700D1124605E7C4F072E000C880B990B27
:101610000E941505C80101E010E08130910511F626
:10162000CD2B09F4BCCFC114D10409F4AECF0E9474
:10163000CB01882309F4A9CF0E940000A6CF8AE439
:1016400091E00E94760820E233E040E050E060E262
:1016500073E080E090E00E94150590E080E0D0E02B
:10166000C0E0D9CFE89409C097FB3EF490958095EF
:10167000709561957F4F8F4F9F4F9923A9F0F92F58
:1016800096E9BB279395F695879577956795B795D6
:10169000F111F8CFFAF4BB0F11F460FF1BC06F5FBC
:1016A0007F4F8F4F9F4F16C0882311F096E911C0CE
:1016B000772321F09EE8872F762F05C0662371F0EF
:1016C00096E8862F70E060E02AF09A95660F771F03
:1016D000881FDAF7880F9695879597F908950E94E5
:1016E000820B0C94F30B0E94E50B38F00E94EC0B7C
:1016F00020F0952311F00C94DC0B0C94E20B1124D8
:101700000C94270C0E94040C70F3959FC1F3950F65
:1017100050E0551F629FF001729FBB27F00DB11D75
:10172000639FAA27F00DB11DAA1F649F6627B00D05
:10173000A11D661F829F2227B00DA11D621F739FEE
:10174000B00DA11D621F839FA00D611D221F749FFC
:101750003327A00D611D231F849F600D211D822F43
:10176000762F6A2F11249F5750409AF0F1F088236A
:101770004AF0EE0FFF1FBB1F661F771F881F915097
:101780005040A9F79E3F510580F00C94DC0B0C945F
:10179000270C5F3FE4F3983ED4F3869577956795E1
:1017A000B795F795E7959F5FC1F7FE2B880F911DC1
:1017B0009695879597F9089597F99F6780E870E067
:1017C00060E008959FEF80EC089500240A941616B7
:1017D000170618060906089500240A94121613061F
:1017E000140605060895092E0394000C11F48823AD
:1017F00052F0BB0F40F4BF2B11F460FF04C06F5FC9
:101800007F4F8F4F9F4F089557FD9058440F551F9E
:1018100059F05F3F71F04795880F97FB991F61F072
:101820009F3F79F087950895121613061406551FE9
:10183000F2CF4695F1DF08C0161617061806991F55
:10184000F1CF86957105610508940895E894BB274A
:1018500066277727CB0197F90895052E97FB1EF48D
:1018600000940E94440C57FD07D00E945F0C07FCB7
:1018700003D04EF40C94440C50954095309521952E
:101880003F4F4F4F5F4F08959095809570956195AC
:101890007F4F8F4F9F4F08950E94810CA59F900D01
:1018A000B49F900DA49F800D911D11240895B7FF42
:1018B0000C944C0C0E944C0C821B930B0895A1E2DB
:1018C0001A2EAA1BBB1BFD010DC0AA1FBB1FEE1FBA
:1018D000FF1FA217B307E407F50720F0A21BB30B05
:1018E000E40BF50B661F771F881F991F1A9469F781
:1018F00060957095809590959B01AC01BD01CF01DD
:101900000895A29FB001B39FC001A39F700D811DD8
:101910001124911DB29F700D811D1124911D0895F8
:101920005058BB27AA270E94A80C0C94F30B0E94C6
:10193000E50B38F00E94EC0B20F039F49F3F19F4CE
:1019400026F40C94E20B0EF4E095E7FB0C94DC0B10
:10195000E92F0E94040C58F3BA1762077307840733
:10196000950720F079F4A6F50C94260C0EF4E0957A
:101970000B2EBA2FA02D0B01B90190010C01CA0149
:10198000A0011124FF27591B99F0593F50F4503EF4
:1019900068F11A16F040A22F232F342F4427585FE6
:1019A000F3CF469537952795A795F0405395C9F7FE
:1019B0007EF41F16BA0B620B730B840BBAF09150B6
:1019C000A1F0FF0FBB1F661F771F881FC2F70EC055
:1019D000BA0F621F731F841F48F487957795679528
:1019E000B795F7959E3F08F0B0CF9395880F08F014
:1019F0009927EE0F9795879508950E94110D0C94E5
:101A0000F30B0E94EC0B58F00E94E50B40F029F418
:101A10005F3F29F00C94DC0B51110C94270C0C94B3
:101A2000E20B0E94040C68F39923B1F3552391F360
:101A3000951B550BBB27AA2762177307840738F03D
:101A40009F5F5F4F220F331F441FAA1FA9F335D09A
:101A50000E2E3AF0E0E832D091505040E695001C4E
:101A6000CAF72BD0FE2F29D0660F771F881FBB1F08
:101A7000261737074807AB07B0E809F0BB0B802DE6
:101A8000BF01FF2793585F4F3AF09E3F510578F012
:101A90000C94DC0B0C94270C5F3FE4F3983ED4F3DA
:101AA000869577956795B795F7959F5FC9F7880FE6
:101AB000911D9695879597F90895E1E0660F771F38
:101AC000881FBB1F621773078407BA0720F0621BC9
:101AD000730B840BBA0BEE1F88F7E09508950E94F4
:101AE000760D6894B1110C94270C08950E940C0C8B
:101AF00088F09F5798F0B92F9927B751B0F0E1F0CF
:101B0000660F771F881F991F1AF0BA95C9F714C07E
:101B1000B13091F00E94260CB1E008950C94260C8F
:101B2000672F782F8827B85F39F0B93FCCF38695B7
:101B300077956795B395D9F73EF490958095709514
:101B400061957F4F8F4F9F4F0895DB018F939F9338
:101B50000E944C0CBF91AF91A29F800D911DA39F3D
:101B6000900DB29F900D11240895EE0FFF1F059068
:0A1B7000F491E02D0994F894FFCFE2
:101B7A00004000000000000000000000000000001B
:101B8A00004000000000000000000000000000000B
:101B9A000040000000000000010261018E014E02B7
:101BAA00BF019D01B1010D0A00426F6F74696E6732
:101BBA002E2E2E00737465702E0072657365742064
:081BCA006D6972726F72730005
:00000001FF
